{
  "contractName": "Voting",
  "abi": [
    {
      "anonymous": false,
      "inputs": [
        {
          "indexed": true,
          "internalType": "address",
          "name": "previousOwner",
          "type": "address"
        },
        {
          "indexed": true,
          "internalType": "address",
          "name": "newOwner",
          "type": "address"
        }
      ],
      "name": "OwnershipTransferred",
      "type": "event"
    },
    {
      "anonymous": false,
      "inputs": [
        {
          "indexed": false,
          "internalType": "uint256",
          "name": "_proposalId",
          "type": "uint256"
        }
      ],
      "name": "ProposalRegistered",
      "type": "event"
    },
    {
      "anonymous": false,
      "inputs": [
        {
          "indexed": false,
          "internalType": "address",
          "name": "_voter",
          "type": "address"
        },
        {
          "indexed": false,
          "internalType": "uint256",
          "name": "_proposalId",
          "type": "uint256"
        }
      ],
      "name": "Voted",
      "type": "event"
    },
    {
      "anonymous": false,
      "inputs": [
        {
          "indexed": false,
          "internalType": "address",
          "name": "_voterAddress",
          "type": "address"
        }
      ],
      "name": "VoterRegistered",
      "type": "event"
    },
    {
      "anonymous": false,
      "inputs": [
        {
          "indexed": false,
          "internalType": "enum Voting.WorkflowStatus",
          "name": "_previousStatus",
          "type": "uint8"
        },
        {
          "indexed": false,
          "internalType": "enum Voting.WorkflowStatus",
          "name": "_newStatus",
          "type": "uint8"
        }
      ],
      "name": "WorkflowStatusChange",
      "type": "event"
    },
    {
      "inputs": [],
      "name": "owner",
      "outputs": [
        {
          "internalType": "address",
          "name": "",
          "type": "address"
        }
      ],
      "stateMutability": "view",
      "type": "function",
      "constant": true
    },
    {
      "inputs": [
        {
          "internalType": "uint256",
          "name": "",
          "type": "uint256"
        }
      ],
      "name": "proposalsArray",
      "outputs": [
        {
          "internalType": "string",
          "name": "description",
          "type": "string"
        },
        {
          "internalType": "uint256",
          "name": "voteCount",
          "type": "uint256"
        }
      ],
      "stateMutability": "view",
      "type": "function",
      "constant": true
    },
    {
      "inputs": [],
      "name": "renounceOwnership",
      "outputs": [],
      "stateMutability": "nonpayable",
      "type": "function"
    },
    {
      "inputs": [
        {
          "internalType": "address",
          "name": "newOwner",
          "type": "address"
        }
      ],
      "name": "transferOwnership",
      "outputs": [],
      "stateMutability": "nonpayable",
      "type": "function"
    },
    {
      "inputs": [],
      "name": "winningProposalId",
      "outputs": [
        {
          "internalType": "uint256",
          "name": "",
          "type": "uint256"
        }
      ],
      "stateMutability": "view",
      "type": "function",
      "constant": true
    },
    {
      "inputs": [],
      "name": "workflowStatus",
      "outputs": [
        {
          "internalType": "enum Voting.WorkflowStatus",
          "name": "",
          "type": "uint8"
        }
      ],
      "stateMutability": "view",
      "type": "function",
      "constant": true
    },
    {
      "inputs": [
        {
          "internalType": "address",
          "name": "_addr",
          "type": "address"
        }
      ],
      "name": "getVoter",
      "outputs": [
        {
          "components": [
            {
              "internalType": "bool",
              "name": "isRegistered",
              "type": "bool"
            },
            {
              "internalType": "bool",
              "name": "hasVoted",
              "type": "bool"
            },
            {
              "internalType": "uint256",
              "name": "votedProposalId",
              "type": "uint256"
            }
          ],
          "internalType": "struct Voting.Voter",
          "name": "",
          "type": "tuple"
        }
      ],
      "stateMutability": "view",
      "type": "function",
      "constant": true
    },
    {
      "inputs": [
        {
          "internalType": "uint256",
          "name": "_id",
          "type": "uint256"
        }
      ],
      "name": "getOneProposal",
      "outputs": [
        {
          "components": [
            {
              "internalType": "string",
              "name": "description",
              "type": "string"
            },
            {
              "internalType": "uint256",
              "name": "voteCount",
              "type": "uint256"
            }
          ],
          "internalType": "struct Voting.Proposal",
          "name": "",
          "type": "tuple"
        }
      ],
      "stateMutability": "view",
      "type": "function",
      "constant": true
    },
    {
      "inputs": [
        {
          "internalType": "address",
          "name": "_addr",
          "type": "address"
        }
      ],
      "name": "addVoter",
      "outputs": [],
      "stateMutability": "nonpayable",
      "type": "function"
    },
    {
      "inputs": [
        {
          "internalType": "string",
          "name": "_desc",
          "type": "string"
        }
      ],
      "name": "addProposal",
      "outputs": [],
      "stateMutability": "nonpayable",
      "type": "function"
    },
    {
      "inputs": [
        {
          "internalType": "uint256",
          "name": "_id",
          "type": "uint256"
        }
      ],
      "name": "setVote",
      "outputs": [],
      "stateMutability": "nonpayable",
      "type": "function"
    },
    {
      "inputs": [],
      "name": "startProposalsRegistering",
      "outputs": [],
      "stateMutability": "nonpayable",
      "type": "function"
    },
    {
      "inputs": [],
      "name": "endProposalsRegistering",
      "outputs": [],
      "stateMutability": "nonpayable",
      "type": "function"
    },
    {
      "inputs": [],
      "name": "startVotingSession",
      "outputs": [],
      "stateMutability": "nonpayable",
      "type": "function"
    },
    {
      "inputs": [],
      "name": "endVotingSession",
      "outputs": [],
      "stateMutability": "nonpayable",
      "type": "function"
    },
    {
      "inputs": [],
      "name": "tallyVotes",
      "outputs": [],
      "stateMutability": "nonpayable",
      "type": "function"
    },
    {
      "inputs": [],
      "name": "getWinner",
      "outputs": [
        {
          "components": [
            {
              "internalType": "string",
              "name": "description",
              "type": "string"
            },
            {
              "internalType": "uint256",
              "name": "voteCount",
              "type": "uint256"
            }
          ],
          "internalType": "struct Voting.Proposal",
          "name": "",
          "type": "tuple"
        }
      ],
      "stateMutability": "view",
      "type": "function",
      "constant": true
    }
  ],
  "bytecode": "0x60806040523480156200001157600080fd5b5062000032620000266200003860201b60201c565b6200004060201b60201c565b62000104565b600033905090565b60008060009054906101000a900473ffffffffffffffffffffffffffffffffffffffff169050816000806101000a81548173ffffffffffffffffffffffffffffffffffffffff021916908373ffffffffffffffffffffffffffffffffffffffff1602179055508173ffffffffffffffffffffffffffffffffffffffff168173ffffffffffffffffffffffffffffffffffffffff167f8be0079c531659141344cd1fd0a4f28419497f9722a3daafe3b4186f6b6457e060405160405180910390a35050565b61287d80620001146000396000f3fe608060405234801561001057600080fd5b506004361061010b5760003560e01c8063a7bfab16116100a2578063d4f50f9811610071578063d4f50f9814610222578063ee74c67814610252578063f2fde38b1461025c578063f4ab9adf14610278578063f86c6779146102945761010b565b8063a7bfab16146101e6578063c64963c5146101f0578063c7038a4e1461020e578063c88af42f146102185761010b565b80638da5cb5b116100de5780638da5cb5b1461015c5780638e7ea5b21461017a578063a1edffa214610198578063a2788cce146101b65761010b565b8063230796ae146101105780632fdae3c51461012c578063378a217814610148578063715018a614610152575b600080fd5b61012a600480360381019061012591906119ba565b6102c5565b005b61014660048036038101906101419190611b2d565b6105c1565b005b610150610804565b005b61015a6109e5565b005b610164610a6d565b6040516101719190611bb7565b60405180910390f35b610182610a96565b60405161018f9190611ca6565b60405180910390f35b6101a0610be3565b6040516101ad9190611d3f565b60405180910390f35b6101d060048036038101906101cb91906119ba565b610bf6565b6040516101dd9190611ca6565b60405180910390f35b6101ee610d5d565b005b6101f8610eb6565b6040516102059190611d69565b60405180910390f35b610216610ebc565b005b610220611016565b005b61023c60048036038101906102379190611db0565b611170565b6040516102499190611e3a565b60405180910390f35b61025a611298565b005b61027660048036038101906102719190611db0565b6113f2565b005b610292600480360381019061028d9190611db0565b6114e9565b005b6102ae60048036038101906102a991906119ba565b611706565b6040516102bc929190611e9f565b60405180910390f35b600660003373ffffffffffffffffffffffffffffffffffffffff1673ffffffffffffffffffffffffffffffffffffffff16815260200190815260200160002060000160009054906101000a900460ff16610354576040517f08c379a000000000000000000000000000000000000000000000000000000000815260040161034b90611f1b565b60405180910390fd5b6003600581111561036857610367611cc8565b5b600460009054906101000a900460ff16600581111561038a57610389611cc8565b5b146103ca576040517f08c379a00000000000000000000000000000000000000000000000000000000081526004016103c190611fad565b60405180910390fd5b60011515600660003373ffffffffffffffffffffffffffffffffffffffff1673ffffffffffffffffffffffffffffffffffffffff16815260200190815260200160002060000160019054906101000a900460ff16151503610460576040517f08c379a000000000000000000000000000000000000000000000000000000000815260040161045790612019565b60405180910390fd5b6005805490508111156104a8576040517f08c379a000000000000000000000000000000000000000000000000000000000815260040161049f90612085565b60405180910390fd5b80600660003373ffffffffffffffffffffffffffffffffffffffff1673ffffffffffffffffffffffffffffffffffffffff168152602001908152602001600020600101819055506001600660003373ffffffffffffffffffffffffffffffffffffffff1673ffffffffffffffffffffffffffffffffffffffff16815260200190815260200160002060000160016101000a81548160ff0219169083151502179055506005818154811061055e5761055d6120a5565b5b9060005260206000209060020201600101600081548092919061058090612103565b91905055507f4d99b957a2bc29a30ebd96a7be8e68fe50a3c701db28a91436490b7d53870ca433826040516105b692919061214b565b60405180910390a150565b600660003373ffffffffffffffffffffffffffffffffffffffff1673ffffffffffffffffffffffffffffffffffffffff16815260200190815260200160002060000160009054906101000a900460ff16610650576040517f08c379a000000000000000000000000000000000000000000000000000000000815260040161064790611f1b565b60405180910390fd5b6001600581111561066457610663611cc8565b5b600460009054906101000a900460ff16600581111561068657610685611cc8565b5b146106c6576040517f08c379a00000000000000000000000000000000000000000000000000000000081526004016106bd906121c0565b60405180910390fd5b6040516020016106d590612206565b60405160208183030381529060405280519060200120816040516020016106fc9190612226565b6040516020818303038152906040528051906020012003610752576040517f08c379a0000000000000000000000000000000000000000000000000000000008152600401610749906122ba565b60405180910390fd5b61075a61188e565b818160000181905250600581908060018154018082558091505060019003906000526020600020906002020160009091909190915060008201518160000190805190602001906107ab9291906118a8565b506020820151816001015550507f92e393e9b54e2f801d3ea4beb0c5e71a21cc34a5d34b77d0fb8a3aa1650dc18f60016005805490506107eb91906122da565b6040516107f89190611d69565b60405180910390a15050565b61080c6117c2565b73ffffffffffffffffffffffffffffffffffffffff1661082a610a6d565b73ffffffffffffffffffffffffffffffffffffffff1614610880576040517f08c379a00000000000000000000000000000000000000000000000000000000081526004016108779061235a565b60405180910390fd5b6004600581111561089457610893611cc8565b5b600460009054906101000a900460ff1660058111156108b6576108b5611cc8565b5b146108f6576040517f08c379a00000000000000000000000000000000000000000000000000000000081526004016108ed906123ec565b60405180910390fd5b600080600090505b600580549050811015610974576005828154811061091f5761091e6120a5565b5b90600052602060002090600202016001015460058281548110610945576109446120a5565b5b9060005260206000209060020201600101541115610961578091505b808061096c90612103565b9150506108fe565b50806001819055506005600460006101000a81548160ff021916908360058111156109a2576109a1611cc8565b5b02179055507f0a97a4ee45751e2abf3e4fc8946939630b11b371ea8ae39ccdc3056e98f5cc3f600460056040516109da92919061240c565b60405180910390a150565b6109ed6117c2565b73ffffffffffffffffffffffffffffffffffffffff16610a0b610a6d565b73ffffffffffffffffffffffffffffffffffffffff1614610a61576040517f08c379a0000000000000000000000000000000000000000000000000000000008152600401610a589061235a565b60405180910390fd5b610a6b60006117ca565b565b60008060009054906101000a900473ffffffffffffffffffffffffffffffffffffffff16905090565b610a9e61188e565b600580811115610ab157610ab0611cc8565b5b600460009054906101000a900460ff166005811115610ad357610ad2611cc8565b5b14610b13576040517f08c379a0000000000000000000000000000000000000000000000000000000008152600401610b0a90612481565b60405180910390fd5b600560015481548110610b2957610b286120a5565b5b9060005260206000209060020201604051806040016040529081600082018054610b52906124d0565b80601f0160208091040260200160405190810160405280929190818152602001828054610b7e906124d0565b8015610bcb5780601f10610ba057610100808354040283529160200191610bcb565b820191906000526020600020905b815481529060010190602001808311610bae57829003601f168201915b50505050508152602001600182015481525050905090565b600460009054906101000a900460ff1681565b610bfe61188e565b600660003373ffffffffffffffffffffffffffffffffffffffff1673ffffffffffffffffffffffffffffffffffffffff16815260200190815260200160002060000160009054906101000a900460ff16610c8d576040517f08c379a0000000000000000000000000000000000000000000000000000000008152600401610c8490611f1b565b60405180910390fd5b60058281548110610ca157610ca06120a5565b5b9060005260206000209060020201604051806040016040529081600082018054610cca906124d0565b80601f0160208091040260200160405190810160405280929190818152602001828054610cf6906124d0565b8015610d435780601f10610d1857610100808354040283529160200191610d43565b820191906000526020600020905b815481529060010190602001808311610d2657829003601f168201915b505050505081526020016001820154815250509050919050565b610d656117c2565b73ffffffffffffffffffffffffffffffffffffffff16610d83610a6d565b73ffffffffffffffffffffffffffffffffffffffff1614610dd9576040517f08c379a0000000000000000000000000000000000000000000000000000000008152600401610dd09061235a565b60405180910390fd5b60036005811115610ded57610dec611cc8565b5b600460009054906101000a900460ff166005811115610e0f57610e0e611cc8565b5b14610e4f576040517f08c379a0000000000000000000000000000000000000000000000000000000008152600401610e4690611fad565b60405180910390fd5b60048060006101000a81548160ff02191690836005811115610e7457610e73611cc8565b5b02179055507f0a97a4ee45751e2abf3e4fc8946939630b11b371ea8ae39ccdc3056e98f5cc3f60036004604051610eac92919061240c565b60405180910390a1565b60015481565b610ec46117c2565b73ffffffffffffffffffffffffffffffffffffffff16610ee2610a6d565b73ffffffffffffffffffffffffffffffffffffffff1614610f38576040517f08c379a0000000000000000000000000000000000000000000000000000000008152600401610f2f9061235a565b60405180910390fd5b60006005811115610f4c57610f4b611cc8565b5b600460009054906101000a900460ff166005811115610f6e57610f6d611cc8565b5b14610fae576040517f08c379a0000000000000000000000000000000000000000000000000000000008152600401610fa590612573565b60405180910390fd5b6001600460006101000a81548160ff02191690836005811115610fd457610fd3611cc8565b5b02179055507f0a97a4ee45751e2abf3e4fc8946939630b11b371ea8ae39ccdc3056e98f5cc3f6000600160405161100c92919061240c565b60405180910390a1565b61101e6117c2565b73ffffffffffffffffffffffffffffffffffffffff1661103c610a6d565b73ffffffffffffffffffffffffffffffffffffffff1614611092576040517f08c379a00000000000000000000000000000000000000000000000000000000081526004016110899061235a565b60405180910390fd5b600160058111156110a6576110a5611cc8565b5b600460009054906101000a900460ff1660058111156110c8576110c7611cc8565b5b14611108576040517f08c379a00000000000000000000000000000000000000000000000000000000081526004016110ff90612605565b60405180910390fd5b6002600460006101000a81548160ff0219169083600581111561112e5761112d611cc8565b5b02179055507f0a97a4ee45751e2abf3e4fc8946939630b11b371ea8ae39ccdc3056e98f5cc3f6001600260405161116692919061240c565b60405180910390a1565b61117861192e565b600660003373ffffffffffffffffffffffffffffffffffffffff1673ffffffffffffffffffffffffffffffffffffffff16815260200190815260200160002060000160009054906101000a900460ff16611207576040517f08c379a00000000000000000000000000000000000000000000000000000000081526004016111fe90611f1b565b60405180910390fd5b600660008373ffffffffffffffffffffffffffffffffffffffff1673ffffffffffffffffffffffffffffffffffffffff1681526020019081526020016000206040518060600160405290816000820160009054906101000a900460ff161515151581526020016000820160019054906101000a900460ff161515151581526020016001820154815250509050919050565b6112a06117c2565b73ffffffffffffffffffffffffffffffffffffffff166112be610a6d565b73ffffffffffffffffffffffffffffffffffffffff1614611314576040517f08c379a000000000000000000000000000000000000000000000000000000000815260040161130b9061235a565b60405180910390fd5b6002600581111561132857611327611cc8565b5b600460009054906101000a900460ff16600581111561134a57611349611cc8565b5b1461138a576040517f08c379a000000000000000000000000000000000000000000000000000000000815260040161138190612697565b60405180910390fd5b6003600460006101000a81548160ff021916908360058111156113b0576113af611cc8565b5b02179055507f0a97a4ee45751e2abf3e4fc8946939630b11b371ea8ae39ccdc3056e98f5cc3f600260036040516113e892919061240c565b60405180910390a1565b6113fa6117c2565b73ffffffffffffffffffffffffffffffffffffffff16611418610a6d565b73ffffffffffffffffffffffffffffffffffffffff161461146e576040517f08c379a00000000000000000000000000000000000000000000000000000000081526004016114659061235a565b60405180910390fd5b600073ffffffffffffffffffffffffffffffffffffffff168173ffffffffffffffffffffffffffffffffffffffff16036114dd576040517f08c379a00000000000000000000000000000000000000000000000000000000081526004016114d490612729565b60405180910390fd5b6114e6816117ca565b50565b6114f16117c2565b73ffffffffffffffffffffffffffffffffffffffff1661150f610a6d565b73ffffffffffffffffffffffffffffffffffffffff1614611565576040517f08c379a000000000000000000000000000000000000000000000000000000000815260040161155c9061235a565b60405180910390fd5b6000600581111561157957611578611cc8565b5b600460009054906101000a900460ff16600581111561159b5761159a611cc8565b5b146115db576040517f08c379a00000000000000000000000000000000000000000000000000000000081526004016115d2906127bb565b60405180910390fd5b60011515600660008373ffffffffffffffffffffffffffffffffffffffff1673ffffffffffffffffffffffffffffffffffffffff16815260200190815260200160002060000160009054906101000a900460ff16151503611671576040517f08c379a000000000000000000000000000000000000000000000000000000000815260040161166890612827565b60405180910390fd5b6001600660008373ffffffffffffffffffffffffffffffffffffffff1673ffffffffffffffffffffffffffffffffffffffff16815260200190815260200160002060000160006101000a81548160ff0219169083151502179055507fb6be2187d059cc2a55fe29e0e503b566e1e0f8c8780096e185429350acffd3dd816040516116fb9190611bb7565b60405180910390a150565b6005818154811061171657600080fd5b9060005260206000209060020201600091509050806000018054611739906124d0565b80601f0160208091040260200160405190810160405280929190818152602001828054611765906124d0565b80156117b25780601f10611787576101008083540402835291602001916117b2565b820191906000526020600020905b81548152906001019060200180831161179557829003601f168201915b5050505050908060010154905082565b600033905090565b60008060009054906101000a900473ffffffffffffffffffffffffffffffffffffffff169050816000806101000a81548173ffffffffffffffffffffffffffffffffffffffff021916908373ffffffffffffffffffffffffffffffffffffffff1602179055508173ffffffffffffffffffffffffffffffffffffffff168173ffffffffffffffffffffffffffffffffffffffff167f8be0079c531659141344cd1fd0a4f28419497f9722a3daafe3b4186f6b6457e060405160405180910390a35050565b604051806040016040528060608152602001600081525090565b8280546118b4906124d0565b90600052602060002090601f0160209004810192826118d6576000855561191d565b82601f106118ef57805160ff191683800117855561191d565b8280016001018555821561191d579182015b8281111561191c578251825591602001919060010190611901565b5b50905061192a9190611953565b5090565b6040518060600160405280600015158152602001600015158152602001600081525090565b5b8082111561196c576000816000905550600101611954565b5090565b6000604051905090565b600080fd5b600080fd5b6000819050919050565b61199781611984565b81146119a257600080fd5b50565b6000813590506119b48161198e565b92915050565b6000602082840312156119d0576119cf61197a565b5b60006119de848285016119a5565b91505092915050565b600080fd5b600080fd5b6000601f19601f8301169050919050565b7f4e487b7100000000000000000000000000000000000000000000000000000000600052604160045260246000fd5b611a3a826119f1565b810181811067ffffffffffffffff82111715611a5957611a58611a02565b5b80604052505050565b6000611a6c611970565b9050611a788282611a31565b919050565b600067ffffffffffffffff821115611a9857611a97611a02565b5b611aa1826119f1565b9050602081019050919050565b82818337600083830152505050565b6000611ad0611acb84611a7d565b611a62565b905082815260208101848484011115611aec57611aeb6119ec565b5b611af7848285611aae565b509392505050565b600082601f830112611b1457611b136119e7565b5b8135611b24848260208601611abd565b91505092915050565b600060208284031215611b4357611b4261197a565b5b600082013567ffffffffffffffff811115611b6157611b6061197f565b5b611b6d84828501611aff565b91505092915050565b600073ffffffffffffffffffffffffffffffffffffffff82169050919050565b6000611ba182611b76565b9050919050565b611bb181611b96565b82525050565b6000602082019050611bcc6000830184611ba8565b92915050565b600081519050919050565b600082825260208201905092915050565b60005b83811015611c0c578082015181840152602081019050611bf1565b83811115611c1b576000848401525b50505050565b6000611c2c82611bd2565b611c368185611bdd565b9350611c46818560208601611bee565b611c4f816119f1565b840191505092915050565b611c6381611984565b82525050565b60006040830160008301518482036000860152611c868282611c21565b9150506020830151611c9b6020860182611c5a565b508091505092915050565b60006020820190508181036000830152611cc08184611c69565b905092915050565b7f4e487b7100000000000000000000000000000000000000000000000000000000600052602160045260246000fd5b60068110611d0857611d07611cc8565b5b50565b6000819050611d1982611cf7565b919050565b6000611d2982611d0b565b9050919050565b611d3981611d1e565b82525050565b6000602082019050611d546000830184611d30565b92915050565b611d6381611984565b82525050565b6000602082019050611d7e6000830184611d5a565b92915050565b611d8d81611b96565b8114611d9857600080fd5b50565b600081359050611daa81611d84565b92915050565b600060208284031215611dc657611dc561197a565b5b6000611dd484828501611d9b565b91505092915050565b60008115159050919050565b611df281611ddd565b82525050565b606082016000820151611e0e6000850182611de9565b506020820151611e216020850182611de9565b506040820151611e346040850182611c5a565b50505050565b6000606082019050611e4f6000830184611df8565b92915050565b600082825260208201905092915050565b6000611e7182611bd2565b611e7b8185611e55565b9350611e8b818560208601611bee565b611e94816119f1565b840191505092915050565b60006040820190508181036000830152611eb98185611e66565b9050611ec86020830184611d5a565b9392505050565b7f596f75277265206e6f74206120766f7465720000000000000000000000000000600082015250565b6000611f05601283611e55565b9150611f1082611ecf565b602082019050919050565b60006020820190508181036000830152611f3481611ef8565b9050919050565b7f566f74696e672073657373696f6e20686176656e74207374617274656420796560008201527f7400000000000000000000000000000000000000000000000000000000000000602082015250565b6000611f97602183611e55565b9150611fa282611f3b565b604082019050919050565b60006020820190508181036000830152611fc681611f8a565b9050919050565b7f596f75206861766520616c726561647920766f74656400000000000000000000600082015250565b6000612003601683611e55565b915061200e82611fcd565b602082019050919050565b6000602082019050818103600083015261203281611ff6565b9050919050565b7f50726f706f73616c206e6f7420666f756e640000000000000000000000000000600082015250565b600061206f601283611e55565b915061207a82612039565b602082019050919050565b6000602082019050818103600083015261209e81612062565b9050919050565b7f4e487b7100000000000000000000000000000000000000000000000000000000600052603260045260246000fd5b7f4e487b7100000000000000000000000000000000000000000000000000000000600052601160045260246000fd5b600061210e82611984565b91507fffffffffffffffffffffffffffffffffffffffffffffffffffffffffffffffff82036121405761213f6120d4565b5b600182019050919050565b60006040820190506121606000830185611ba8565b61216d6020830184611d5a565b9392505050565b7f50726f706f73616c7320617265206e6f7420616c6c6f77656420796574000000600082015250565b60006121aa601d83611e55565b91506121b582612174565b602082019050919050565b600060208201905081810360008301526121d98161219d565b9050919050565b50565b60006121f0600083611e55565b91506121fb826121e0565b600082019050919050565b6000602082019050818103600083015261221f816121e3565b9050919050565b600060208201905081810360008301526122408184611e66565b905092915050565b7f566f7573206e6520706f7576657a20706173206e65207269656e2070726f706f60008201527f7365720000000000000000000000000000000000000000000000000000000000602082015250565b60006122a4602383611e55565b91506122af82612248565b604082019050919050565b600060208201905081810360008301526122d381612297565b9050919050565b60006122e582611984565b91506122f083611984565b925082821015612303576123026120d4565b5b828203905092915050565b7f4f776e61626c653a2063616c6c6572206973206e6f7420746865206f776e6572600082015250565b6000612344602083611e55565b915061234f8261230e565b602082019050919050565b6000602082019050818103600083015261237381612337565b9050919050565b7f43757272656e7420737461747573206973206e6f7420766f74696e672073657360008201527f73696f6e20656e64656400000000000000000000000000000000000000000000602082015250565b60006123d6602a83611e55565b91506123e18261237a565b604082019050919050565b60006020820190508181036000830152612405816123c9565b9050919050565b60006040820190506124216000830185611d30565b61242e6020830184611d30565b9392505050565b7f566f74657320617265206e6f742074616c6c6965642079657400000000000000600082015250565b600061246b601983611e55565b915061247682612435565b602082019050919050565b6000602082019050818103600083015261249a8161245e565b9050919050565b7f4e487b7100000000000000000000000000000000000000000000000000000000600052602260045260246000fd5b600060028204905060018216806124e857607f821691505b6020821081036124fb576124fa6124a1565b5b50919050565b7f5265676973746572696e672070726f706f73616c732063616e7420626520737460008201527f6172746564206e6f770000000000000000000000000000000000000000000000602082015250565b600061255d602983611e55565b915061256882612501565b604082019050919050565b6000602082019050818103600083015261258c81612550565b9050919050565b7f5265676973746572696e672070726f706f73616c7320686176656e742073746160008201527f7274656420796574000000000000000000000000000000000000000000000000602082015250565b60006125ef602883611e55565b91506125fa82612593565b604082019050919050565b6000602082019050818103600083015261261e816125e2565b9050919050565b7f5265676973746572696e672070726f706f73616c73207068617365206973206e60008201527f6f742066696e6973686564000000000000000000000000000000000000000000602082015250565b6000612681602b83611e55565b915061268c82612625565b604082019050919050565b600060208201905081810360008301526126b081612674565b9050919050565b7f4f776e61626c653a206e6577206f776e657220697320746865207a65726f206160008201527f6464726573730000000000000000000000000000000000000000000000000000602082015250565b6000612713602683611e55565b915061271e826126b7565b604082019050919050565b6000602082019050818103600083015261274281612706565b9050919050565b7f566f7465727320726567697374726174696f6e206973206e6f74206f70656e2060008201527f7965740000000000000000000000000000000000000000000000000000000000602082015250565b60006127a5602383611e55565b91506127b082612749565b604082019050919050565b600060208201905081810360008301526127d481612798565b9050919050565b7f416c726561647920726567697374657265640000000000000000000000000000600082015250565b6000612811601283611e55565b915061281c826127db565b602082019050919050565b6000602082019050818103600083015261284081612804565b905091905056fea26469706673582212207d0f602c249978bcbfd03ca79dde4a28df57e24724666419c61662042ab85d3064736f6c634300080d0033",
  "immutableReferences": {},
  "source": "// SPDX-License-Identifier: MIT\npragma solidity 0.8.13;\n\nimport \"@openzeppelin/contracts/access/Ownable.sol\";\n\n/**\n * @title Alyra Voting Dapp Project\n * @notice Protocol to enable users to create and vote on proposals\n * @author Fabien Frick\n */\ncontract Voting is Ownable {\n\n    /**\n    * @notice Winning proposal ID\n    */\n    uint256 public winningProposalId;\n\n    /**\n    * @notice In case of draw\n    */   \n    uint256[] winningProposalsID;\n\n    /**\n    * @notice In case of draw\n    */\n    Proposal[] winningProposals;\n\n    /**\n     * @notice Struct Voter\n     */\n    struct Voter {\n        bool isRegistered;\n        bool hasVoted;\n        uint256 votedProposalId;\n    }\n\n    /**\n     * @notice Struct Proposal\n     */\n    struct Proposal {\n        string description;\n        uint256 voteCount;\n    }\n\n    /**\n     * @notice WorkflowStatus Enum\n     */\n    enum WorkflowStatus {\n        RegisteringVoters,\n        ProposalsRegistrationStarted,\n        ProposalsRegistrationEnded,\n        VotingSessionStarted,\n        VotingSessionEnded,\n        VotesTallied\n    }\n\n    /**\n     * @notice Workflow Status\n     */\n    WorkflowStatus public workflowStatus;\n\n    /**\n     * @notice Proposals Array\n     */\n    Proposal[] public proposalsArray;\n\n    /**\n     * @notice Voters mapping\n     */\n    mapping(address => Voter) private voters;\n\n    /**\n     * @notice Notice when a voter is registered\n     * @param _voterAddress The voter's address registered\n     */\n    event VoterRegistered(address _voterAddress);\n\n    /**\n     * @notice Signals when workflow status changes\n     * @param _previousStatus The previous workflow status\n     * @param _newStatus The new workflow status\n     */\n    event WorkflowStatusChange( WorkflowStatus _previousStatus, WorkflowStatus _newStatus);\n\n    /**\n     * @notice Notice when a proposal is registered\n     * @param _proposalId ID of the proposal\n     */\n    event ProposalRegistered(uint256 _proposalId);\n\n    /**\n     * @notice Signals when a voter vote for a proposal\n     * @param _voter proposal address\n     * @param _proposalId proposal id\n     */\n    event Voted(address _voter, uint256 _proposalId);\n\n    /**\n     * @notice Modifier for whitelisted voters only\n     */\n    modifier onlyVoters() {\n        require(voters[msg.sender].isRegistered, \"You're not a voter\");\n        _;\n    }\n\n    /**\n     * @notice Returns Voter information. Only available for registered voters\n     * @param _addr Voter's address\n     */\n    function getVoter(address _addr) external view onlyVoters returns (Voter memory) {\n        return voters[_addr];\n    }\n\n    /**\n     * @notice Returns a Proposal\n     * @param _id Proposal's ID\n     */\n    function getOneProposal(uint256 _id) external view onlyVoters returns (Proposal memory) {\n        return proposalsArray[_id];\n    }\n\n    /**\n     * @notice Whitelist an address\n     * @param _addr Address to whitelist\n     */\n    function addVoter(address _addr) external onlyOwner {\n        require(workflowStatus == WorkflowStatus.RegisteringVoters, \"Voters registration is not open yet\");\n        require(voters[_addr].isRegistered != true, \"Already registered\");\n\n        voters[_addr].isRegistered = true;\n        emit VoterRegistered(_addr);\n    }\n\n    /**\n     * @notice Add a proposal in the array. Only whitelisted addresses\n     * @param _desc Description of the proposal\n     */\n    function addProposal(string memory _desc) external onlyVoters {\n        require(workflowStatus == WorkflowStatus.ProposalsRegistrationStarted, \"Proposals are not allowed yet\");\n        require(keccak256(abi.encode(_desc)) != keccak256(abi.encode(\"\")), \"Vous ne pouvez pas ne rien proposer\"); \n\n        Proposal memory proposal;\n        proposal.description = _desc;\n        proposalsArray.push(proposal);\n        emit ProposalRegistered(proposalsArray.length - 1);\n    }\n\n    /**\n     * @notice Vote for a proposal. Only whitelisted addresses\n     * @param _id Proposal's ID\n     */\n    function setVote(uint256 _id) external onlyVoters {\n        require(workflowStatus == WorkflowStatus.VotingSessionStarted, \"Voting session havent started yet\");\n        require(voters[msg.sender].hasVoted != true, \"You have already voted\");\n        require(_id <= proposalsArray.length, \"Proposal not found\");\n\n        voters[msg.sender].votedProposalId = _id;\n        voters[msg.sender].hasVoted = true;\n        proposalsArray[_id].voteCount++;\n\n        emit Voted(msg.sender, _id);\n    }\n\n    /**\n     * @notice Owner Only. Starts proposals registration. Updates workflow to ProposalsRegistrationStarted.\n     */\n    function startProposalsRegistering() external onlyOwner {\n        require(workflowStatus == WorkflowStatus.RegisteringVoters, \"Registering proposals cant be started now\");\n        workflowStatus = WorkflowStatus.ProposalsRegistrationStarted;\n        emit WorkflowStatusChange(WorkflowStatus.RegisteringVoters, WorkflowStatus.ProposalsRegistrationStarted);\n    }\n\n    /**\n     * @notice Owner Only. Ends proposals registration. Updates workflow to ProposalsRegistrationEnded.\n     */\n    function endProposalsRegistering() external onlyOwner {\n        require(workflowStatus == WorkflowStatus.ProposalsRegistrationStarted, \"Registering proposals havent started yet\");\n        workflowStatus = WorkflowStatus.ProposalsRegistrationEnded;\n        emit WorkflowStatusChange(WorkflowStatus.ProposalsRegistrationStarted, WorkflowStatus.ProposalsRegistrationEnded);\n    }\n\n    /**\n     * @notice Owner Only. Starts voting session. Updates workflow to VotingSessionStarted.\n     */\n    function startVotingSession() external onlyOwner {\n        require(workflowStatus == WorkflowStatus.ProposalsRegistrationEnded, \"Registering proposals phase is not finished\");\n        workflowStatus = WorkflowStatus.VotingSessionStarted;\n        emit WorkflowStatusChange(WorkflowStatus.ProposalsRegistrationEnded, WorkflowStatus.VotingSessionStarted);\n    }\n\n    /**\n     * @notice Owner Only. Ends voting session. Updates workflow to VotingSessionEnded.\n     */\n    function endVotingSession() external onlyOwner {\n        require(workflowStatus == WorkflowStatus.VotingSessionStarted, \"Voting session havent started yet\");\n        workflowStatus = WorkflowStatus.VotingSessionEnded;\n        emit WorkflowStatusChange(WorkflowStatus.VotingSessionStarted, WorkflowStatus.VotingSessionEnded);\n    }\n\n    /**\n     * @notice Tally votes and set the winning proposal. Only owner.\n     */\n    function tallyVotes() external onlyOwner {\n        require(workflowStatus == WorkflowStatus.VotingSessionEnded, \"Current status is not voting session ended\");\n        uint256 _winningProposalId;\n        for (uint256 p = 0; p < proposalsArray.length; p++) {\n            if (proposalsArray[p].voteCount > proposalsArray[_winningProposalId].voteCount) {\n                _winningProposalId = p;\n            }\n        }\n        winningProposalId = _winningProposalId;\n\n        workflowStatus = WorkflowStatus.VotesTallied;\n        emit WorkflowStatusChange(WorkflowStatus.VotingSessionEnded, WorkflowStatus.VotesTallied);\n    }\n\n    /**\n     * @notice Returns the winning Proposal\n     */\n    function getWinner() external view returns (Proposal memory) {\n        require(workflowStatus == WorkflowStatus.VotesTallied, \"Votes are not tallied yet\");\n        return proposalsArray[winningProposalId];\n    }\n}",
  "sourcePath": "/home/peiin/reactKovan/contracts/Voting.sol",
  "compiler": {
    "name": "solc",
    "version": "0.8.13+commit.abaa5c0e.Emscripten.clang"
  },
  "schemaVersion": "3.4.6",
  "updatedAt": "2022-04-24T20:45:33.458Z",
  "networkType": "ethereum",
  "devdoc": {
    "author": "Fabien Frick",
    "events": {
      "ProposalRegistered(uint256)": {
        "params": {
          "_proposalId": "ID of the proposal"
        }
      },
      "Voted(address,uint256)": {
        "params": {
          "_proposalId": "proposal id",
          "_voter": "proposal address"
        }
      },
      "VoterRegistered(address)": {
        "params": {
          "_voterAddress": "The voter's address registered"
        }
      },
      "WorkflowStatusChange(uint8,uint8)": {
        "params": {
          "_newStatus": "The new workflow status",
          "_previousStatus": "The previous workflow status"
        }
      }
    },
    "kind": "dev",
    "methods": {
      "addProposal(string)": {
        "params": {
          "_desc": "Description of the proposal"
        }
      },
      "addVoter(address)": {
        "params": {
          "_addr": "Address to whitelist"
        }
      },
      "getOneProposal(uint256)": {
        "params": {
          "_id": "Proposal's ID"
        }
      },
      "getVoter(address)": {
        "params": {
          "_addr": "Voter's address"
        }
      },
      "owner()": {
        "details": "Returns the address of the current owner."
      },
      "renounceOwnership()": {
        "details": "Leaves the contract without owner. It will not be possible to call `onlyOwner` functions anymore. Can only be called by the current owner. NOTE: Renouncing ownership will leave the contract without an owner, thereby removing any functionality that is only available to the owner."
      },
      "setVote(uint256)": {
        "params": {
          "_id": "Proposal's ID"
        }
      },
      "transferOwnership(address)": {
        "details": "Transfers ownership of the contract to a new account (`newOwner`). Can only be called by the current owner."
      }
    },
    "title": "Alyra Voting Dapp Project",
    "version": 1
  },
  "userdoc": {
    "events": {
      "ProposalRegistered(uint256)": {
        "notice": "Notice when a proposal is registered"
      },
      "Voted(address,uint256)": {
        "notice": "Signals when a voter vote for a proposal"
      },
      "VoterRegistered(address)": {
        "notice": "Notice when a voter is registered"
      },
      "WorkflowStatusChange(uint8,uint8)": {
        "notice": "Signals when workflow status changes"
      }
    },
    "kind": "user",
    "methods": {
      "addProposal(string)": {
        "notice": "Add a proposal in the array. Only whitelisted addresses"
      },
      "addVoter(address)": {
        "notice": "Whitelist an address"
      },
      "endProposalsRegistering()": {
        "notice": "Owner Only. Ends proposals registration. Updates workflow to ProposalsRegistrationEnded."
      },
      "endVotingSession()": {
        "notice": "Owner Only. Ends voting session. Updates workflow to VotingSessionEnded."
      },
      "getOneProposal(uint256)": {
        "notice": "Returns a Proposal"
      },
      "getVoter(address)": {
        "notice": "Returns Voter information. Only available for registered voters"
      },
      "getWinner()": {
        "notice": "Returns the winning Proposal"
      },
      "proposalsArray(uint256)": {
        "notice": "Proposals Array"
      },
      "setVote(uint256)": {
        "notice": "Vote for a proposal. Only whitelisted addresses"
      },
      "startProposalsRegistering()": {
        "notice": "Owner Only. Starts proposals registration. Updates workflow to ProposalsRegistrationStarted."
      },
      "startVotingSession()": {
        "notice": "Owner Only. Starts voting session. Updates workflow to VotingSessionStarted."
      },
      "tallyVotes()": {
        "notice": "Tally votes and set the winning proposal. Only owner."
      },
      "winningProposalId()": {
        "notice": "Winning proposal ID"
      },
      "workflowStatus()": {
        "notice": "Workflow Status"
      }
    },
    "notice": "Protocol to enable users to create and vote on proposals",
    "version": 1
  }
}